:100000000C942A000C943F000C943F000C943F0089
:100010000C943F000C943F000C943F000C943F0064
:100020000C943F000C943F000C943F000C943F0054
:100030000C943F000C943F000C943F000C943F0044
:100040000C943F000C943F000C943F000C943F0034
:100050000C943F0011241FBECFE5D8E0DEBFCDBF1A
:1000600011E0A0E6B0E0E4EDF7E102C005900D92EA
:10007000A038B107D9F70E942A0B0C94E80B0C9416
:100080000000EF92FF920F931F937B018C0120E001
:1000900030E040E05FE40E94110388238CF0C80147
:1000A000B70120E030E040E05FE40E94B9010E9427
:1000B00041039B01AC01205030404040504806C0F5
:1000C000C801B7010E9441039B01AC01B901CA01FB
:1000D0001F910F91FF90EF900895A0E0B0E0E3E74B
:1000E000F0E00C94B10BDC012B01FA019C919230F1
:1000F00008F439C1EB018881823008F433C19430AF
:1001000069F4843009F02FC111969C91119789816F
:10011000981709F428C1A0E6B0E025C1843009F49D
:1001200021C18230A9F4923009F01DC19A01AD01BC
:1001300088E0EA010990AE01E90109929E0181502F
:10014000C1F7E201898111969C918923818308C1BD
:10015000923009F407C112962D903C901397EB0151
:100160008A819B811496AD90BD90CD90DC901797BD
:10017000EC80FD800E811F819101281B390BB90194
:1001800037FF04C066277727621B730B6032710547
:100190000CF061C0121613066CF537014801062EEB
:1001A00004C096948794779467940A94D2F721E0D8
:1001B00030E040E050E004C0220F331F441F551FC1
:1001C0006A95D2F721503040404050402E213F21C7
:1001D00040235123211531054105510521F021E02E
:1001E00030E040E050E079018A01E628F72808294C
:1001F00019293CC0232BD1F1260E371E35014601AB
:10020000062E04C096948794779467940A94D2F744
:1002100021E030E040E050E004C0220F331F441FD3
:10022000551F6A95D2F721503040404050402A2156
:100230003B214C215D21211531054105510521F05E
:1002400021E030E040E050E059016A01A628B728DB
:10025000C828D9280BC0821593052CF01C01AA24AC
:10026000BB24650103C0EE24FF24870111969C91F5
:10027000D20111968C91981709F445C0992339F051
:10028000A80197012A193B094C095D0906C0A6017E
:1002900095012E193F09400B510B57FD08C01182E3
:1002A0003382228224833583468357831DC081E0B5
:1002B00081833382228288279927DC01821B930B5A
:1002C000A40BB50B84839583A683B7830DC0220F3F
:1002D000331F441F551F24833583468357838281F0
:1002E000938101979383828324813581468157814D
:1002F000DA01C9010197A109B1098F5F9F4FAF4F83
:10030000BF4328F30BC0918333822282EA0CFB1C8B
:100310000C1D1D1DE482F5820683178383E0808314
:10032000248135814681578157FF1AC0C901AA2708
:1003300097FDA095BA2F81709070A070B0705695FF
:10034000479537952795822B932BA42BB52B848328
:100350009583A683B7838281938101969383828359
:10036000DF0101C0D201CD01CDB7DEB7E2E10C94CF
:10037000CD0BA0E2B0E0EFEBF1E00C94BD0B698394
:100380007A838B839C832D833E834F835887E9E058
:10039000EE2EF12CEC0EFD1ECE010196B7010E944F
:1003A00032058E010F5E1F4FCE010596B8010E94E7
:1003B00032058A8991E089278A8BC701B801AE018D
:1003C000475E5F4F0E946D000E945D04A096E6E0CC
:1003D0000C94D90BA0E2B0E0E0EFF1E00C94BD0B7F
:1003E00069837A838B839C832D833E834F835887D5
:1003F000F9E0EF2EF12CEC0EFD1ECE010196B701B7
:100400000E9432058E010F5E1F4FCE010596B80186
:100410000E943205C701B801AE01475E5F4F0E94DE
:100420006D000E945D04A096E6E00C94D90BA0E25A
:10043000B0E0EDE1F2E00C94B10B69837A838B8339
:100440009C832D833E834F835887CE010196BE0146
:10045000675F7F4F0E943205CE010596BE016F5E39
:100460007F4F0E9432059985923088F089898230C9
:10047000C8F0943019F4823051F404C0843029F467
:10048000923081F480E690E0C6C0923049F420E0DA
:100490009A858A89981321E02A87CE010996BBC0E4
:1004A000823049F420E09A858A89981321E02A8BCA
:1004B000CE014196B0C02D843E844F8458886D880B
:1004C0007E888F88988CEE24FF248701AA24BB2481
:1004D000650140E050E060E070E0E0E0F0E0C10184
:1004E00081709070892BE9F0E60CF71C081D191D2E
:1004F0009A01AB012A0D3B1D4C1D5D1D80E090E073
:10050000A0E0B0E0E614F7040805190520F481E046
:1005100090E0A0E0B0E0BA01A901480F591F6A1F9E
:100520007B1FAA0CBB1CCC1CDD1C97FE08C081E005
:1005300090E0A0E0B0E0A82AB92ACA2ADB2A3196C6
:10054000E032F10549F0660C771C881C991C569422
:10055000479437942794C3CFFA85EA892B893C893D
:100560008B859C85280F391F2E5F3F4F17C0CA010E
:1005700081709070892B61F016950795F794E79438
:1005800080E090E0A0E0B0E8E82AF92A0A2B1B2BD3
:1005900076956795579547952F5F3F4F77FDE7CF46
:1005A0000CC0440F551F661F771F17FD4160EE0CEE
:1005B000FF1C001F111F21503040403090E05907B0
:1005C00090E0690790E4790760F32B8F3C8FDB01A3
:1005D000CA018F779070A070B07080349105A1052A
:1005E000B10561F447FD0AC0E114F10401051105EC
:1005F00029F0405C5F4F6F4F7F4F40781A8EFE1797
:1006000011F081E08A8F4D8F5E8F6F8F78A383E02A
:10061000898FCE0149960E945D04A096E2E10C9478
:10062000CD0BA8E1B0E0E7E1F3E00C94BD0B6983EA
:100630007A838B839C832D833E834F83588789E005
:10064000E82EF12CEC0EFD1ECE010196B7010E94A2
:1006500032058E010F5E1F4FCE010596B8010E9434
:1006600032058985823040F08989823028F0C701BF
:10067000B8010E94AA0501C08FEF6896E6E00C94CD
:10068000D90BACE0B0E0E7E4F3E00C94C10B698374
:100690007A838B839C83CE010196BE016B5F7F4F73
:1006A0000E9432058D81823061F1823050F18430B8
:1006B00021F48E81882351F12EC02F81388537FD9A
:1006C00020C06E812F3131051CF06623F9F023C064
:1006D0008EE190E0821B930B29853A854B855C85E2
:1006E00004C056954795379527958A95D2F7662386
:1006F000B1F050954095309521953F4F4F4F5F4F4A
:100700000EC020E030E040E050E009C02FEF3FEFA6
:100710004FEF5FE704C020E030E040E050E8B9016F
:10072000CA012C96E2E00C94DD0BA8E0B0E0EBE906
:10073000F3E00C94B90B7B018C0161157105810507
:10074000910519F482E0898360C083E089838EE19A
:10075000C82ED12CDC82CB82ED82FE820F831887DB
:10076000C801B7010E940E04FC013197F7FF3BC09E
:10077000222733272E1B3F0B57016801022E04C08E
:10078000D694C794B794A7940A94D2F740E050E067
:1007900060E070E081E090E0A0E0B0E004C0880F8D
:1007A000991FAA1FBB1F2A95D2F70197A109B1096A
:1007B0008E219F21A023B1230097A105B10521F02F
:1007C00041E050E060E070E04A295B296C297D2916
:1007D0004D835E836F8378878EE190E08E1B9F0B45
:1007E0009C838B8312C0309781F00E2E04C0EE0CD8
:1007F000FF1C001F111F0A94D2F7ED82FE820F83A7
:100800001887CE1ADF0ADC82CB821A82CE010196CB
:100810000E945D042896EAE00C94D50BEF92FF92BB
:100820000F931F937B018C0180E0E81680E0F806AF
:1008300081E0080780E0180788F48FEFE816F104DC
:100840000105110531F028F088E090E0A0E0B0E06B
:1008500017C080E090E0A0E0B0E012C080E0E816B1
:1008600080E0F80680E0080781E0180728F088E1BA
:1008700090E0A0E0B0E004C080E190E0A0E0B0E053
:1008800020E230E040E050E0281B390B4A0B5B0BC4
:1008900004C016950795F794E7948A95D2F7F70167
:1008A000E859FF4F8081281B310941095109C901CD
:1008B0001F910F91FF90EF900895DF92EF92FF92BA
:1008C0000F931F93FC01E480F58006811781D1808E
:1008D0008081823048F480E090E0A0E1B0E0E82A36
:1008E000F92A0A2B1B2BA5C0843009F49FC0823043
:1008F00021F4EE24FF24870105C0E114F104010571
:10090000110519F4E0E0F0E096C0628173819FEF79
:10091000623879070CF05BC022E83FEF261B370BEB
:100920002A3131052CF020E030E040E050E02AC0D0
:10093000B801A701022E04C0769567955795479593
:100940000A94D2F781E090E0A0E0B0E004C0880F04
:10095000991FAA1FBB1F2A95D2F70197A109B109B8
:100960008E219F21A023B1230097A105B10521F07D
:1009700081E090E0A0E0B0E09A01AB01282B392B98
:100980004A2B5B2BDA01C9018F779070A070B07091
:1009900080349105A105B10539F427FF09C0205C19
:1009A0003F4F4F4F5F4F04C0215C3F4F4F4F5F4F52
:1009B000E0E0F0E02030A0E03A07A0E04A07A0E441
:1009C0005A0710F0E1E0F0E079018A0127C06038B1
:1009D000710564F5FB01E158FF4FD801C7018F771E
:1009E0009070A070B07080349105A105B10539F404
:1009F000E7FE0DC080E490E0A0E0B0E004C08FE32B
:100A000090E0A0E0B0E0E80EF91E0A1F1B1F17FFE0
:100A100005C016950795F794E794319687E01695EB
:100A20000795F794E7948A95D1F705C0EE24FF2443
:100A30008701EFEFF0E06E2F679566276795902F9F
:100A40009F77D794DD24D7948E2F8695492F462BF8
:100A5000582F5D29B701CA011F910F91FF90EF90A8
:100A6000DF900895FC01DB01408151812281622FDA
:100A70006F7770E0221F2227221F9381892F880F12
:100A8000822B282F30E0991F9927991F11969C934C
:100A9000119721153105A9F541155105610571051C
:100AA00011F482E037C082E89FEF13969C938E93F7
:100AB00012979A01AB0167E0220F331F441F551FA5
:100AC0006A95D1F783E08C930DC0220F331F441F2A
:100AD000551F12968D919C911397019713969C9395
:100AE0008E931297203080E0380780E0480780E43A
:100AF000580758F314962D933D934D935C93179795
:100B000008952F3F310579F44115510561057105AF
:100B100019F484E08C93089564FF03C081E08C9302
:100B200012C01C9210C02F57304013963C932E9346
:100B3000129783E08C9387E0440F551F661F771F41
:100B40008A95D1F7706414964D935D936D937C9361
:100B5000179708951F93DC01FB019C91923008F4D4
:100B600047C08081823008F443C0943051F411961C
:100B70001C91843099F58181682F70E0611B7109A7
:100B80003FC0843021F0923031F48230B9F181815C
:100B9000882389F12DC011961C9111978230F1F0B4
:100BA00081811817D9F412962D913C911397828167
:100BB00093818217930794F028173907BCF0149695
:100BC0008D919D910D90BC91A02D24813581468100
:100BD0005781281739074A075B0718F4112341F09A
:100BE0000AC082179307A407B50740F4112319F030
:100BF00061E070E005C06FEF7FEF02C060E070E081
:100C0000CB011F9108959A01AB01882341F464E060
:100C1000220F331F441F551F6A95D1F713C081302F
:100C200041F493E0220F331F441F551F9A95D1F7CB
:100C300009C0823019F020E030E00CC0220F331FD1
:100C4000441F551F60E072E18AE790E00E94740B38
:100C50002150304030BD29B957985698549A539A2C
:100C60008AB18AB986E880BD0895982F8BB18295A4
:100C700086958770D9F39CB908955F9BFECF8CB1A0
:100C800090E008951F93182F82E061E040E00E94F9
:100C9000AF0983E0612F0E94330A82E060E041E007
:100CA0000E94AF0980ED97E00197F1F782E060E0E4
:100CB00040E00E94AF0984EF91E028EC30E0F901B8
:100CC0003197F1F70197D9F71F9108951F93182FC6
:100CD00082E062E040E00E94AF09812F0E9442065C
:100CE0001F91089581E00E9466060895882329F4E3
:100CF000862F80580E9466060895813021F4862F41
:100D000080540E946606089581E090E060E070E003
:100D10000E94760682E062E041E00E94AF0982E034
:100D200061E041E00E94AF0908950F931F9382E0B4
:100D300060E041E00E943C0982E060E040E00E9407
:100D4000AF0982E061E041E00E943C0982E062E09C
:100D500041E00E943C0983E06FEF0E94220A84EF89
:100D600091E028EC30E0F9013197F1F70197D9F7DC
:100D700088E30E94660600ED17E0C8010197F1F7CD
:100D80008EE00E946606C8010197F1F781E00E949B
:100D9000660600EA1FE0C8010197F1F783E00E94B0
:100DA0006606C8010197F1F71F910F9108951F93EF
:100DB000182F82E062E041E00E94AF09812F0E947B
:100DC00042061F9108956F927F928F929F92AF92E9
:100DD000BF92CF92DF92EF92FF920F931F93AC01DD
:100DE000CB01DA013C014D01AA24BB24650120C0DE
:100DF000C601B5012AE030E040E050E00E94550B0A
:100E00007B018C01C401B3010E94740B5B016C0176
:100E1000AE0CBF1CC01ED11EC401B3012AE030E0DD
:100E200040E050E00E94740BC901DA013C014D0121
:100E30006114710481049104D9F618C0C601B5018A
:100E40002AE030E040E050E00E94740B862F805D85
:100E50000E94D706C601B5012AE030E040E050E02C
:100E60000E94740BC901DA015C016D01A114B10487
:100E7000C104D10419F71F910F91FF90EF90DF90FB
:100E8000CF90BF90AF909F908F907F906F9008957C
:100E9000AF92BF92CF92DF92EF92FF920F931F9388
:100EA0005B016C010E9441007B018C010E94E30602
:100EB0008EE20E94D706C801B7010E9495039B01EC
:100EC000AC01C601B5010E94B90120E030E44CE15B
:100ED00056E40E9417020E9441000E94E3061F91FF
:100EE0000F91FF90EF90DF90CF90BF90AF9008955B
:100EF000AF92BF92CF92DF92EF92FF920F931F9328
:100F0000CF93DF93E62EFF24C62EDD2488ECA82E97
:100F1000B12C1DC081E00E946606602F6D5F8F2D91
:100F20000E9476061E2DC0E0D0E004C0812F0E94F2
:100F3000D70621961150CC15DD05C4F380E395E763
:100F4000F5013197F1F70197D9F70E0D01C000E0D7
:100F5000802F90E00D97F4F2F39482E0F816B9F741
:100F6000DF91CF911F910F91FF90EF90DF90CF9085
:100F7000BF90AF900895CF92DF92EF92FF920F93C0
:100F80001F93CF93DF937C01162F80E40E946606A7
:100F9000C12EDD24860193E0000F111F9A95E1F721
:100FA000C0E0D0E007C0F701EC0FFD1F80810E9478
:100FB000D7062196C017D107B4F384E00E946606D5
:100FC00080E063E00E947606C0E0D0E004C08C2F91
:100FD0000E94D7062196CC15DD05CCF3DF91CF9189
:100FE0001F910F91FF90EF90DF90CF900895CF93D6
:100FF000DF93EC0102C00E94D70689918823D9F7BC
:10100000DF91CF910895FF920F931F93CF93DF93BA
:101010000CE711E0C0E0D0E081E0F801608140E041
:101020000E94AF0981E0609178010E94440A882300
:1010300019F460E070E01DC081E0609179010E94C8
:10104000440A882319F461E070E013C081E06091E4
:101050007A010E94440A882319F462E070E009C012
:1010600081E060917B010E94440A8823F1F463E0EF
:1010700070E0FB01EE0FFF1FEE0FFF1FEC0FFD1FD7
:10108000E859FE4FF0808B0108581E4F81E0F801AF
:1010900060810E94440A8823C9F3C458DE4F81E06E
:1010A000688141E00E94AF090DC081E0F8016191C3
:1010B0008F0141E00E94AF092196C430D10509F0AB
:1010C000ABCFFF248F2DDF91CF911F910F91FF9018
:1010D000089581E060EF0E94220A81E06FE00E94A3
:1010E000330A089521E030E00AC0A901489F900129
:1010F000499F300D589F300D11246150704061158B
:10110000710599F7822F08950F931F93CF93DF9363
:10111000062F142F70E0C1E0D0E006C0CC0FDD1F19
:10112000CC0FDD1F6150704061157105B9F79C014E
:1011300040E050E060E072E18AE790E00E94960BA8
:10114000CA01B90160517040804090402C2F30E0BE
:10115000220F331F442737FD4095542F0E94960BD2
:1011600020B986B7806486BF81B1802B81B9110F09
:1011700012B9DF91CF911F910F910895880F82B915
:101180000895109A08951098089586B7846A86BFC6
:1011900006B607FEFDCF81B190E0887F883009F464
:1011A00091E0892F089586B7846A86BF06B607FE48
:1011B000FDCF81B190E0887F803109F491E0892FE3
:1011C0000895880F862B83B986B78F7D86BF86B733
:1011D000806886BF06B607FEFDCF81B1887F883163
:1011E00029F081B190E0887F803409F491E0892F63
:1011F000089583B986B7806886BF06B607FEFDCF1F
:1012000081B190E0887F883209F491E0892F0895B8
:10121000FC0186B7846C86BF06B607FEFDCF81B1A0
:10122000887F803811F080E0089583B1808381E069
:10123000089583B980E886BF06B607FEFDCF81B169
:1012400090E0887F883C09F491E0892F0895FC01A3
:1012500086B7806886BF06B607FEFDCF81B1887F5E
:10126000803511F080E0089583B1808381E0089596
:1012700086B7806986BF08954130B1F5813099F015
:10128000813030F08230D1F0833009F067C021C066
:101290002AB381E090E002C0880F991F6A95E2F7B7
:1012A000282B2ABB089527B381E090E002C0880F65
:1012B000991F6A95E2F7282B27BB089524B381E094
:1012C00090E002C0880F991F6A95E2F7282B24BB93
:1012D000089521B381E090E002C0880F991F6A95BC
:1012E000E2F7282B21BB08954423C1F5813099F002
:1012F000813028F08230D9F0833081F524C02AB3C0
:1013000081E090E002C0880F991F6A95E2F780950E
:1013100082238ABB089527B381E090E002C0880F42
:10132000991F6A95E2F78095822387BB089524B3BD
:1013300081E090E002C0880F991F6A95E2F78095DE
:10134000822384BB089521B381E090E002C0880F1E
:10135000991F6A95E2F78095822381BB08954130F9
:10136000B1F5813099F0813030F08230D1F08330A6
:1013700009F067C021C02BB381E090E002C0880F64
:10138000991F6A95E2F7282B2BBB089528B381E0BB
:1013900090E002C0880F991F6A95E2F7282B28BBBE
:1013A000089525B381E090E002C0880F991F6A95E7
:1013B000E2F7282B25BB089522B381E090E002C01C
:1013C000880F991F6A95E2F7282B22BB08954423C2
:1013D000C1F5813099F0813028F08230D9F0833026
:1013E00081F524C02BB381E090E002C0880F991FE3
:1013F0006A95E2F7809582238BBB089528B381E03C
:1014000090E002C0880F991F6A95E2F780958223C9
:1014100088BB089525B381E090E002C0880F991F32
:101420006A95E2F78095822385BB089522B381E017
:1014300090E002C0880F991F6A95E2F78095822399
:1014400082BB0895813049F0813028F0823039F034
:10145000833041F406C06ABB089567BB089564BB3E
:10146000089561BB0895813049F0813028F08230C1
:1014700039F0833041F406C06BBB089568BB089512
:1014800065BB089562BB0895813049F0813028F032
:10149000823039F08330B1F40DC089B303C086B314
:1014A00001C083B390E002C0959587956A95E2F7F5
:1014B0008170089580B390E002C0959587956A95F4
:1014C000E2F781700895813091F0813028F0823008
:1014D000C9F0833061F521C02AB381E090E002C0F9
:1014E000880F991F6A95E2F728272ABB089527B32A
:1014F00081E090E002C0880F991F6A95E2F72827E3
:1015000027BB089524B381E090E002C0880F991FA3
:101510006A95E2F7282724BB089521B381E090E083
:1015200002C0880F991F6A95E2F7282721BB08950A
:10153000813091F0813028F08230C9F0833061F53C
:1015400021C02BB381E090E002C0880F991F6A95FB
:10155000E2F728272BBB089528B381E090E002C072
:10156000880F991F6A95E2F7282728BB089525B3AD
:1015700081E090E002C0880F991F6A95E2F7282762
:1015800025BB089522B381E090E002C0880F991F27
:101590006A95E2F7282722BB089530983198329A4D
:1015A0003F9A3E9A3D980895379A0895379808953E
:1015B00097B1907E97B997B1982B97B90895369ABD
:1015C0000895882319F0813021F402C035980895D8
:1015D000359A08958330D9F0843028F4813079F039
:1015E000823088F409C08530D1F08530A0F0863093
:1015F000D1F0873001F51CC080B78F7117C080B75C
:1016000080628F7313C080B78F7180640FC080B702
:1016100080668F770BC080B78F79806807C080B7EE
:101620008F71806A03C080B78F7D806C80BF089502
:1016300080B7806E80BF0895339A089533980895D7
:10164000369A86B182958F70E1F3339A24B135B121
:10165000C9010895EF92FF920F931F93DF93CF93E9
:101660000F92CDB7DEB780E061E00E94220A82E0EF
:101670000E94BE0882E061E00E94330A81E0898313
:101680007E010894E11CF11C08EC10E0C7010E94E7
:10169000080980E069810E94330A80E197E2F8013D
:1016A0003197F1F70197D9F7F1CF629FD001739F7E
:1016B000F001829FE00DF11D649FE00DF11D929FEE
:1016C000F00D839FF00D749FF00D659FF00D99272D
:1016D000729FB00DE11DF91F639FB00DE11DF91F51
:1016E000BD01CF0111240895A1E21A2EAA1BBB1B34
:1016F000FD010DC0AA1FBB1FEE1FFF1FA217B307DE
:10170000E407F50720F0A21BB30BE40BF50B661FF3
:10171000771F881F991F1A9469F7609570958095B7
:1017200090959B01AC01BD01CF01089597FB092E57
:1017300005260ED057FD04D0D7DF0AD0001C38F4A0
:1017400050954095309521953F4F4F4F5F4F0895ED
:10175000F6F790958095709561957F4F8F4F9F4FCD
:1017600008952F923F924F925F926F927F928F9245
:101770009F92AF92BF92CF92DF92EF92FF920F9320
:101780001F93CF93DF93CDB7DEB7CA1BDB0B0FB62A
:10179000F894DEBF0FBECDBF09942A8839884888E7
:1017A0005F846E847D848C849B84AA84B984C8847D
:1017B000DF80EE80FD800C811B81AA81B981CE0F74
:1017C000D11D0FB6F894DEBF0FBECDBFED01089559
:0417D000F894FFCFBB
:1017D40000000000000000000001020203030303F4
:1017E40004040404040404040505050505050505AD
:1017F400050505050505050506060606060606068D
:101804000606060606060606060606060606060674
:10181400060606060606060607070707070707075C
:101824000707070707070707070707070707070744
:101834000707070707070707070707070707070734
:101844000707070707070707070707070707070724
:10185400070707070707070708080808080808080C
:1018640008080808080808080808080808080808F4
:1018740008080808080808080808080808080808E4
:1018840008080808080808080808080808080808D4
:1018940008080808080808080808080808080808C4
:1018A40008080808080808080808080808080808B4
:1018B40008080808080808080808080808080808A4
:1018C4000808080808080808080808080808080894
:1018D40008080808080808083938372F3635342A24
:1018E4003332312D3D30312B03020100040506074C
:00000001FF
